{
  "_format": "hh-sol-artifact-1",
  "contractName": "VesselManagerOperations",
  "sourceName": "contracts/VesselManagerOperations.sol",
  "abi": [
    {
      "inputs": [],
      "name": "VesselManagerOperations__EmptyAmount",
      "type": "error"
    },
    {
      "inputs": [
        {
          "internalType": "uint256",
          "name": "lowerBoundary",
          "type": "uint256"
        },
        {
          "internalType": "uint256",
          "name": "upperBoundary",
          "type": "uint256"
        }
      ],
      "name": "VesselManagerOperations__FeePercentOutOfBounds",
      "type": "error"
    },
    {
      "inputs": [
        {
          "internalType": "uint256",
          "name": "availableBalance",
          "type": "uint256"
        }
      ],
      "name": "VesselManagerOperations__InsufficientDebtTokenBalance",
      "type": "error"
    },
    {
      "inputs": [],
      "name": "VesselManagerOperations__InvalidArraySize",
      "type": "error"
    },
    {
      "inputs": [],
      "name": "VesselManagerOperations__InvalidParam",
      "type": "error"
    },
    {
      "inputs": [],
      "name": "VesselManagerOperations__NotTimelock",
      "type": "error"
    },
    {
      "inputs": [],
      "name": "VesselManagerOperations__NothingToLiquidate",
      "type": "error"
    },
    {
      "inputs": [],
      "name": "VesselManagerOperations__OnlyVesselManager",
      "type": "error"
    },
    {
      "inputs": [],
      "name": "VesselManagerOperations__RedemptionIsBlocked",
      "type": "error"
    },
    {
      "inputs": [
        {
          "internalType": "uint256",
          "name": "tcr",
          "type": "uint256"
        },
        {
          "internalType": "uint256",
          "name": "mcr",
          "type": "uint256"
        }
      ],
      "name": "VesselManagerOperations__TCRMustBeAboveMCR",
      "type": "error"
    },
    {
      "inputs": [],
      "name": "VesselManagerOperations__UnableToRedeemAnyAmount",
      "type": "error"
    },
    {
      "inputs": [],
      "name": "VesselManagerOperations__VesselNotActive",
      "type": "error"
    },
    {
      "anonymous": false,
      "inputs": [
        {
          "indexed": false,
          "internalType": "address",
          "name": "previousAdmin",
          "type": "address"
        },
        {
          "indexed": false,
          "internalType": "address",
          "name": "newAdmin",
          "type": "address"
        }
      ],
      "name": "AdminChanged",
      "type": "event"
    },
    {
      "anonymous": false,
      "inputs": [
        {
          "indexed": true,
          "internalType": "address",
          "name": "beacon",
          "type": "address"
        }
      ],
      "name": "BeaconUpgraded",
      "type": "event"
    },
    {
      "anonymous": false,
      "inputs": [
        {
          "indexed": false,
          "internalType": "uint8",
          "name": "version",
          "type": "uint8"
        }
      ],
      "name": "Initialized",
      "type": "event"
    },
    {
      "anonymous": false,
      "inputs": [
        {
          "indexed": true,
          "internalType": "address",
          "name": "_asset",
          "type": "address"
        },
        {
          "indexed": false,
          "internalType": "uint256",
          "name": "_liquidatedDebt",
          "type": "uint256"
        },
        {
          "indexed": false,
          "internalType": "uint256",
          "name": "_liquidatedColl",
          "type": "uint256"
        },
        {
          "indexed": false,
          "internalType": "uint256",
          "name": "_collGasCompensation",
          "type": "uint256"
        },
        {
          "indexed": false,
          "internalType": "uint256",
          "name": "_debtTokenGasCompensation",
          "type": "uint256"
        }
      ],
      "name": "Liquidation",
      "type": "event"
    },
    {
      "anonymous": false,
      "inputs": [
        {
          "indexed": true,
          "internalType": "address",
          "name": "previousOwner",
          "type": "address"
        },
        {
          "indexed": true,
          "internalType": "address",
          "name": "newOwner",
          "type": "address"
        }
      ],
      "name": "OwnershipTransferred",
      "type": "event"
    },
    {
      "anonymous": false,
      "inputs": [
        {
          "indexed": true,
          "internalType": "address",
          "name": "_asset",
          "type": "address"
        },
        {
          "indexed": false,
          "internalType": "uint256",
          "name": "_attemptedDebtAmount",
          "type": "uint256"
        },
        {
          "indexed": false,
          "internalType": "uint256",
          "name": "_actualDebtAmount",
          "type": "uint256"
        },
        {
          "indexed": false,
          "internalType": "uint256",
          "name": "_collSent",
          "type": "uint256"
        },
        {
          "indexed": false,
          "internalType": "uint256",
          "name": "_collFee",
          "type": "uint256"
        }
      ],
      "name": "Redemption",
      "type": "event"
    },
    {
      "anonymous": false,
      "inputs": [
        {
          "indexed": false,
          "internalType": "uint256",
          "name": "_redemptionSofteningParam",
          "type": "uint256"
        }
      ],
      "name": "RedemptionSoftenParamChanged",
      "type": "event"
    },
    {
      "anonymous": false,
      "inputs": [
        {
          "indexed": true,
          "internalType": "address",
          "name": "implementation",
          "type": "address"
        }
      ],
      "name": "Upgraded",
      "type": "event"
    },
    {
      "anonymous": false,
      "inputs": [
        {
          "indexed": true,
          "internalType": "address",
          "name": "_asset",
          "type": "address"
        },
        {
          "indexed": true,
          "internalType": "address",
          "name": "_borrower",
          "type": "address"
        },
        {
          "indexed": false,
          "internalType": "uint256",
          "name": "_debt",
          "type": "uint256"
        },
        {
          "indexed": false,
          "internalType": "uint256",
          "name": "_coll",
          "type": "uint256"
        },
        {
          "indexed": false,
          "internalType": "enum IVesselManager.VesselManagerOperation",
          "name": "_operation",
          "type": "uint8"
        }
      ],
      "name": "VesselLiquidated",
      "type": "event"
    },
    {
      "inputs": [],
      "name": "BATCH_SIZE_LIMIT",
      "outputs": [
        {
          "internalType": "uint256",
          "name": "",
          "type": "uint256"
        }
      ],
      "stateMutability": "view",
      "type": "function"
    },
    {
      "inputs": [],
      "name": "DECIMAL_PRECISION",
      "outputs": [
        {
          "internalType": "uint256",
          "name": "",
          "type": "uint256"
        }
      ],
      "stateMutability": "view",
      "type": "function"
    },
    {
      "inputs": [],
      "name": "NAME",
      "outputs": [
        {
          "internalType": "string",
          "name": "",
          "type": "string"
        }
      ],
      "stateMutability": "view",
      "type": "function"
    },
    {
      "inputs": [],
      "name": "PERCENTAGE_PRECISION",
      "outputs": [
        {
          "internalType": "uint256",
          "name": "",
          "type": "uint256"
        }
      ],
      "stateMutability": "view",
      "type": "function"
    },
    {
      "inputs": [],
      "name": "activePool",
      "outputs": [
        {
          "internalType": "address",
          "name": "",
          "type": "address"
        }
      ],
      "stateMutability": "view",
      "type": "function"
    },
    {
      "inputs": [],
      "name": "adminContract",
      "outputs": [
        {
          "internalType": "address",
          "name": "",
          "type": "address"
        }
      ],
      "stateMutability": "view",
      "type": "function"
    },
    {
      "inputs": [
        {
          "internalType": "address",
          "name": "newImplementation",
          "type": "address"
        }
      ],
      "name": "authorizeUpgrade",
      "outputs": [],
      "stateMutability": "nonpayable",
      "type": "function"
    },
    {
      "inputs": [
        {
          "internalType": "address",
          "name": "_asset",
          "type": "address"
        },
        {
          "internalType": "address[]",
          "name": "_vesselArray",
          "type": "address[]"
        }
      ],
      "name": "batchLiquidateVessels",
      "outputs": [],
      "stateMutability": "nonpayable",
      "type": "function"
    },
    {
      "inputs": [],
      "name": "borrowerOperations",
      "outputs": [
        {
          "internalType": "address",
          "name": "",
          "type": "address"
        }
      ],
      "stateMutability": "view",
      "type": "function"
    },
    {
      "inputs": [],
      "name": "collSurplusPool",
      "outputs": [
        {
          "internalType": "address",
          "name": "",
          "type": "address"
        }
      ],
      "stateMutability": "view",
      "type": "function"
    },
    {
      "inputs": [],
      "name": "communityIssuance",
      "outputs": [
        {
          "internalType": "address",
          "name": "",
          "type": "address"
        }
      ],
      "stateMutability": "view",
      "type": "function"
    },
    {
      "inputs": [
        {
          "internalType": "uint256",
          "name": "_coll",
          "type": "uint256"
        },
        {
          "internalType": "uint256",
          "name": "_debt",
          "type": "uint256"
        }
      ],
      "name": "computeNominalCR",
      "outputs": [
        {
          "internalType": "uint256",
          "name": "",
          "type": "uint256"
        }
      ],
      "stateMutability": "pure",
      "type": "function"
    },
    {
      "inputs": [],
      "name": "debtToken",
      "outputs": [
        {
          "internalType": "address",
          "name": "",
          "type": "address"
        }
      ],
      "stateMutability": "view",
      "type": "function"
    },
    {
      "inputs": [],
      "name": "defaultPool",
      "outputs": [
        {
          "internalType": "address",
          "name": "",
          "type": "address"
        }
      ],
      "stateMutability": "view",
      "type": "function"
    },
    {
      "inputs": [],
      "name": "feeCollector",
      "outputs": [
        {
          "internalType": "address",
          "name": "",
          "type": "address"
        }
      ],
      "stateMutability": "view",
      "type": "function"
    },
    {
      "inputs": [],
      "name": "gasPoolAddress",
      "outputs": [
        {
          "internalType": "address",
          "name": "",
          "type": "address"
        }
      ],
      "stateMutability": "view",
      "type": "function"
    },
    {
      "inputs": [
        {
          "internalType": "address",
          "name": "_asset",
          "type": "address"
        },
        {
          "internalType": "uint256",
          "name": "_CR",
          "type": "uint256"
        },
        {
          "internalType": "uint256",
          "name": "_numTrials",
          "type": "uint256"
        },
        {
          "internalType": "uint256",
          "name": "_inputRandomSeed",
          "type": "uint256"
        }
      ],
      "name": "getApproxHint",
      "outputs": [
        {
          "internalType": "address",
          "name": "hintAddress",
          "type": "address"
        },
        {
          "internalType": "uint256",
          "name": "diff",
          "type": "uint256"
        },
        {
          "internalType": "uint256",
          "name": "latestRandomSeed",
          "type": "uint256"
        }
      ],
      "stateMutability": "view",
      "type": "function"
    },
    {
      "inputs": [
        {
          "internalType": "address",
          "name": "_asset",
          "type": "address"
        }
      ],
      "name": "getEntireSystemColl",
      "outputs": [
        {
          "internalType": "uint256",
          "name": "entireSystemColl",
          "type": "uint256"
        }
      ],
      "stateMutability": "view",
      "type": "function"
    },
    {
      "inputs": [
        {
          "internalType": "address",
          "name": "_asset",
          "type": "address"
        }
      ],
      "name": "getEntireSystemDebt",
      "outputs": [
        {
          "internalType": "uint256",
          "name": "entireSystemDebt",
          "type": "uint256"
        }
      ],
      "stateMutability": "view",
      "type": "function"
    },
    {
      "inputs": [
        {
          "internalType": "address",
          "name": "_asset",
          "type": "address"
        },
        {
          "internalType": "uint256",
          "name": "_debtTokenAmount",
          "type": "uint256"
        },
        {
          "internalType": "uint256",
          "name": "_price",
          "type": "uint256"
        },
        {
          "internalType": "uint256",
          "name": "_maxIterations",
          "type": "uint256"
        }
      ],
      "name": "getRedemptionHints",
      "outputs": [
        {
          "internalType": "address",
          "name": "firstRedemptionHint",
          "type": "address"
        },
        {
          "internalType": "uint256",
          "name": "partialRedemptionHintNewICR",
          "type": "uint256"
        },
        {
          "internalType": "uint256",
          "name": "truncatedDebtTokenAmount",
          "type": "uint256"
        }
      ],
      "stateMutability": "view",
      "type": "function"
    },
    {
      "inputs": [],
      "name": "grvtStaking",
      "outputs": [
        {
          "internalType": "address",
          "name": "",
          "type": "address"
        }
      ],
      "stateMutability": "view",
      "type": "function"
    },
    {
      "inputs": [],
      "name": "initialize",
      "outputs": [],
      "stateMutability": "nonpayable",
      "type": "function"
    },
    {
      "inputs": [
        {
          "internalType": "address",
          "name": "_asset",
          "type": "address"
        },
        {
          "internalType": "address",
          "name": "_borrower",
          "type": "address"
        }
      ],
      "name": "liquidate",
      "outputs": [],
      "stateMutability": "nonpayable",
      "type": "function"
    },
    {
      "inputs": [
        {
          "internalType": "address",
          "name": "_asset",
          "type": "address"
        },
        {
          "internalType": "uint256",
          "name": "_n",
          "type": "uint256"
        }
      ],
      "name": "liquidateVessels",
      "outputs": [],
      "stateMutability": "nonpayable",
      "type": "function"
    },
    {
      "inputs": [],
      "name": "owner",
      "outputs": [
        {
          "internalType": "address",
          "name": "",
          "type": "address"
        }
      ],
      "stateMutability": "view",
      "type": "function"
    },
    {
      "inputs": [],
      "name": "priceFeed",
      "outputs": [
        {
          "internalType": "address",
          "name": "",
          "type": "address"
        }
      ],
      "stateMutability": "view",
      "type": "function"
    },
    {
      "inputs": [],
      "name": "proxiableUUID",
      "outputs": [
        {
          "internalType": "bytes32",
          "name": "",
          "type": "bytes32"
        }
      ],
      "stateMutability": "view",
      "type": "function"
    },
    {
      "inputs": [
        {
          "internalType": "address",
          "name": "_asset",
          "type": "address"
        },
        {
          "internalType": "uint256",
          "name": "_debtTokenAmount",
          "type": "uint256"
        },
        {
          "internalType": "address",
          "name": "_upperPartialRedemptionHint",
          "type": "address"
        },
        {
          "internalType": "address",
          "name": "_lowerPartialRedemptionHint",
          "type": "address"
        },
        {
          "internalType": "address",
          "name": "_firstRedemptionHint",
          "type": "address"
        },
        {
          "internalType": "uint256",
          "name": "_partialRedemptionHintNICR",
          "type": "uint256"
        },
        {
          "internalType": "uint256",
          "name": "_maxIterations",
          "type": "uint256"
        },
        {
          "internalType": "uint256",
          "name": "_maxFeePercentage",
          "type": "uint256"
        }
      ],
      "name": "redeemCollateral",
      "outputs": [],
      "stateMutability": "nonpayable",
      "type": "function"
    },
    {
      "inputs": [],
      "name": "redemptionSofteningParam",
      "outputs": [
        {
          "internalType": "uint256",
          "name": "",
          "type": "uint256"
        }
      ],
      "stateMutability": "view",
      "type": "function"
    },
    {
      "inputs": [],
      "name": "renounceOwnership",
      "outputs": [],
      "stateMutability": "nonpayable",
      "type": "function"
    },
    {
      "inputs": [
        {
          "internalType": "uint256",
          "name": "_redemptionSofteningParam",
          "type": "uint256"
        }
      ],
      "name": "setRedemptionSofteningParam",
      "outputs": [],
      "stateMutability": "nonpayable",
      "type": "function"
    },
    {
      "inputs": [],
      "name": "sortedVessels",
      "outputs": [
        {
          "internalType": "address",
          "name": "",
          "type": "address"
        }
      ],
      "stateMutability": "view",
      "type": "function"
    },
    {
      "inputs": [],
      "name": "stabilityPool",
      "outputs": [
        {
          "internalType": "address",
          "name": "",
          "type": "address"
        }
      ],
      "stateMutability": "view",
      "type": "function"
    },
    {
      "inputs": [],
      "name": "timelockAddress",
      "outputs": [
        {
          "internalType": "address",
          "name": "",
          "type": "address"
        }
      ],
      "stateMutability": "view",
      "type": "function"
    },
    {
      "inputs": [
        {
          "internalType": "address",
          "name": "newOwner",
          "type": "address"
        }
      ],
      "name": "transferOwnership",
      "outputs": [],
      "stateMutability": "nonpayable",
      "type": "function"
    },
    {
      "inputs": [],
      "name": "treasuryAddress",
      "outputs": [
        {
          "internalType": "address",
          "name": "",
          "type": "address"
        }
      ],
      "stateMutability": "view",
      "type": "function"
    },
    {
      "inputs": [
        {
          "internalType": "address",
          "name": "newImplementation",
          "type": "address"
        }
      ],
      "name": "upgradeTo",
      "outputs": [],
      "stateMutability": "nonpayable",
      "type": "function"
    },
    {
      "inputs": [
        {
          "internalType": "address",
          "name": "newImplementation",
          "type": "address"
        },
        {
          "internalType": "bytes",
          "name": "data",
          "type": "bytes"
        }
      ],
      "name": "upgradeToAndCall",
      "outputs": [],
      "stateMutability": "payable",
      "type": "function"
    },
    {
      "inputs": [],
      "name": "vesselManager",
      "outputs": [
        {
          "internalType": "address",
          "name": "",
          "type": "address"
        }
      ],
      "stateMutability": "view",
      "type": "function"
    },
    {
      "inputs": [],
      "name": "vesselManagerOperations",
      "outputs": [
        {
          "internalType": "address",
          "name": "",
          "type": "address"
        }
      ],
      "stateMutability": "view",
      "type": "function"
    }
  ],
  "bytecode": "0x60a06040523060805234801561001457600080fd5b50608051615a4e6200004d60003960008181610fa901528181610ff20152818161180e0152818161184e01526118e10152615a4e6000f3fe60806040526004361061023b5760003560e01c80638da5cb5b1161012e578063c394a7fa116100ab578063e256888f1161006f578063e256888f146106fb578063f2fde38b14610711578063f8d8989814610731578063fe06073314610759578063fe9d03231461077957600080fd5b8063c394a7fa1461063b578063c415b95c1461065b578063c5f956af14610683578063c7eae303146106ab578063cda775f9146106d357600080fd5b8063a3f4df7e116100f2578063a3f4df7e1461056e578063ad59db65146105c4578063b264ff16146105d9578063bf74ba07146105f9578063c05c5e941461061957600080fd5b80638da5cb5b146104ff57806395fb16bb1461051d5780639e86d0c4146105325780639ec67e421461051d578063a20baee61461055257600080fd5b806352d1902d116101bc57806377553ad41161018057806377553ad4146104635780637f7dde4a1461048b5780638129fc1c146104b357806382eaca21146104c857806386b9d81f146104df57600080fd5b806352d1902d146103d157806366acea14146103e6578063701526b414610406578063715018a614610426578063741bef1a1461043b57600080fd5b80633cc74225116102035780633cc742251461032657806340a44bd11461034e5780634284af1f1461036e5780634bc66f32146103965780634f1ef286146103be57600080fd5b8063048c661d146102405780630f2343fd1461028557806327d04b35146102a7578063301be459146102d55780633659cfe614610304575b600080fd5b34801561024c57600080fd5b50610268734f39f12064d83f6dd7a2bdb0d53af8be560356a681565b6040516001600160a01b0390911681526020015b60405180910390f35b34801561029157600080fd5b5061026860008051602061599283398151915281565b3480156102b357600080fd5b506102c76102c23660046152f8565b6107a1565b60405190815260200161027c565b3480156102e157600080fd5b506102f56102f0366004615315565b6108b9565b60405161027c93929190615350565b34801561031057600080fd5b5061032461031f3660046152f8565b610f9f565b005b34801561033257600080fd5b506102687384446698694b348eaece187b55df06ab4ce72b3581565b34801561035a57600080fd5b50610324610369366004615371565b611087565b34801561037a57600080fd5b5061026873c49b737fa56f9142974a54f6c66055468ec631d081565b3480156103a257600080fd5b506102687357a1953bf194a1ef73396e442ac7dc761dcd23cc81565b6103246103cc366004615439565b611804565b3480156103dd57600080fd5b506102c76118d4565b3480156103f257600080fd5b506103246104013660046154e1565b611987565b34801561041257600080fd5b506102f5610421366004615315565b611df0565b34801561043257600080fd5b50610324612108565b34801561044757600080fd5b506102687389f1eccf2644902344db02788a790551bb07035181565b34801561046f57600080fd5b50610268732bca0300c2aa65de6f19c2d241b54a445c9990e281565b34801561049757600080fd5b50610268732b0024ecee0626e9cfb5f0195f69dcac5b759dc981565b3480156104bf57600080fd5b5061032461211c565b3480156104d457600080fd5b506102c76101235481565b3480156104eb57600080fd5b506103246104fa36600461550d565b61223d565b34801561050b57600080fd5b5060c9546001600160a01b0316610268565b34801561052957600080fd5b50610268600081565b34801561053e57600080fd5b506102c761054d3660046152f8565b612333565b34801561055e57600080fd5b506102c7670de0b6b3a764000081565b34801561057a57600080fd5b506105b76040518060400160405280601781526020017f56657373656c4d616e616765724f7065726174696f6e7300000000000000000081525081565b60405161027c919061556a565b3480156105d057600080fd5b506102c7601981565b3480156105e557600080fd5b506103246105f436600461559d565b6123fa565b34801561060557600080fd5b50610324610614366004615664565b6125a4565b34801561062557600080fd5b506102686000805160206159f983398151915281565b34801561064757600080fd5b506102c761065636600461567d565b61263d565b34801561066757600080fd5b50610268734928c8f8c20a1e3c295dddbe05095a9abbdb3d1481565b34801561068f57600080fd5b50610268736f8fe995422c5efe6487a7b07f67e84aad9d4ec881565b3480156106b757600080fd5b5061026873f31d88232f36098096d1eb69f0de48b53a1d18ce81565b3480156106df57600080fd5b506102687309dfdf392a56e4316e97a13e20b09c415fcd3d7b81565b34801561070757600080fd5b506102c761271081565b34801561071d57600080fd5b5061032461072c3660046152f8565b612652565b34801561073d57600080fd5b506102687315f74458ae0bfdaa1a96ca1aa779d715cc1eefe481565b34801561076557600080fd5b506103246107743660046152f8565b6126c8565b34801561078557600080fd5b506102687340e0e274a42d9b1a9d4b64dc6c46d21228d45c2081565b60405163c5739d0b60e01b81526001600160a01b03821660048201526000908190732b0024ecee0626e9cfb5f0195f69dcac5b759dc99063c5739d0b90602401602060405180830381865afa1580156107fe573d6000803e3d6000fd5b505050506040513d601f19601f82011682018060405250810190610822919061569f565b60405163c5739d0b60e01b81526001600160a01b03851660048201529091506000907384446698694b348eaece187b55df06ab4ce72b359063c5739d0b906024015b602060405180830381865afa158015610881573d6000803e3d6000fd5b505050506040513d601f19601f820116820180604052508101906108a5919061569f565b90506108b181836156ce565b949350505050565b604080516080810182526001600160a01b03861680825260208201869052818301859052606082018490529151637608271560e01b81526004810192909252600091829182918790839073f31d88232f36098096d1eb69f0de48b53a1d18ce90637608271590602401602060405180830381865afa15801561093f573d6000803e3d6000fd5b505050506040513d601f19601f8201168201806040525081019061096391906156e1565b90505b6001600160a01b03811615801590610a6e57508251604051633c557a6f60e11b81526001600160a01b0390911660048201526000805160206159f9833981519152906378aaf4de90602401602060405180830381865afa1580156109ce573d6000803e3d6000fd5b505050506040513d601f19601f820116820180604052508101906109f2919061569f565b8351604080860151905163b1eafaab60e01b81526000805160206159928339815191529263b1eafaab92610a2b928791906004016156fe565b602060405180830381865afa158015610a48573d6000803e3d6000fd5b505050506040513d601f19601f82011682018060405250810190610a6c919061569f565b105b15610af45782516040516239c6e160ea1b815273f31d88232f36098096d1eb69f0de48b53a1d18ce9163e71b840091610aac91908590600401615722565b602060405180830381865afa158015610ac9573d6000803e3d6000fd5b505050506040513d601f19601f82011682018060405250810190610aed91906156e1565b9050610966565b8095508260600151600003610b0c5760001960608401525b6001600160a01b03811615801590610b2357508115155b8015610b3f575060608301805190610b3a8261573c565b905215155b15610f8657825160405162a79b1d60e31b8152600091610c44916000805160206159928339815191529063053cd8e890610b7f9084908890600401615722565b602060405180830381865afa158015610b9c573d6000803e3d6000fd5b505050506040513d601f19601f82011682018060405250810190610bc0919061569f565b8651604051637f8da42560e01b815260008051602061599283398151915291637f8da42591610bf491908990600401615722565b602060405180830381865afa158015610c11573d6000803e3d6000fd5b505050506040513d601f19601f82011682018060405250810190610c35919061569f565b610c3f91906156ce565b6126d1565b9050828111610c5e57610c578184615753565b9250610f04565b83516040516321b443a360e21b81526001600160a01b0390911660048201526000805160206159f9833981519152906386d10e8c90602401602060405180830381865afa158015610cb3573d6000803e3d6000fd5b505050506040513d601f19601f82011682018060405250810190610cd7919061569f565b811115610efe5783516040516321b443a360e21b81526001600160a01b039091166004820152600090610d709085906000805160206159f9833981519152906386d10e8c906024015b602060405180830381865afa158015610d3d573d6000803e3d6000fd5b505050506040513d601f19601f82011682018060405250810190610d61919061569f565b610d6b9085615753565b612754565b8551604051635f0b504b60e11b81529192506000916000805160206159928339815191529163be16a09691610daa91908890600401615722565b602060405180830381865afa158015610dc7573d6000803e3d6000fd5b505050506040513d601f19601f82011682018060405250810190610deb919061569f565b86516040516341f0f4bd60e01b8152600080516020615992833981519152916341f0f4bd91610e1f91908990600401615722565b602060405180830381865afa158015610e3c573d6000803e3d6000fd5b505050506040513d601f19601f82011682018060405250810190610e60919061569f565b610e6a91906156ce565b905060008660400151670de0b6b3a764000084610e879190615766565b610e919190615793565b90506127106101235482610ea59190615766565b610eaf9190615793565b90506000610ebd8284615753565b90506000610ecb8587615753565b90506000610edd8a600001518361276a565b9050610ee983826127ed565b9b50610ef5868a615753565b98505050505050505b50610f86565b83516040516239c6e160ea1b815273f31d88232f36098096d1eb69f0de48b53a1d18ce9163e71b840091610f3d91908690600401615722565b602060405180830381865afa158015610f5a573d6000803e3d6000fd5b505050506040513d601f19601f82011682018060405250810190610f7e91906156e1565b915050610b0c565b610f90828a615753565b93505050509450945094915050565b6001600160a01b037f0000000000000000000000000000000000000000000000000000000000000000163003610ff05760405162461bcd60e51b8152600401610fe7906157a7565b60405180910390fd5b7f00000000000000000000000000000000000000000000000000000000000000006001600160a01b03166110396000805160206159b2833981519152546001600160a01b031690565b6001600160a01b03161461105f5760405162461bcd60e51b8152600401610fe7906157f3565b61106881612823565b604080516000808252602082019092526110849183919061282b565b50565b6110cf60405180610100016040528060008152602001600081526020016000815260200160008152602001600081526020016000815260200160008152602001600081525090565b604051635670bcc760e11b81526001600160a01b038a1660048201527389f1eccf2644902344db02788a790551bb0703519063ace1798e90602401602060405180830381865afa158015611127573d6000803e3d6000fd5b505050506040513d601f19601f8201168201806040525081019061114b919061569f565b60c08201819052611161908a9084908b90612996565b61116a896107a1565b60e082015287815260c08101516040516352576cdf60e01b8152600091600080516020615992833981519152916352576cdf916111ad918e918b916004016156fe565b6020604051808303816000875af11580156111cc573d6000803e3d6000fd5b505050506040513d601f19601f820116820180604052508101906111f0919061583f565b156111fc575084611405565b604051637608271560e01b81526001600160a01b038b16600482015273f31d88232f36098096d1eb69f0de48b53a1d18ce90637608271590602401602060405180830381865afa158015611254573d6000803e3d6000fd5b505050506040513d601f19601f8201168201806040525081019061127891906156e1565b90505b6001600160a01b038116158015906113805750604051633c557a6f60e11b81526001600160a01b038b1660048201526000805160206159f9833981519152906378aaf4de90602401602060405180830381865afa1580156112e0573d6000803e3d6000fd5b505050506040513d601f19601f82011682018060405250810190611304919061569f565b60c083015160405163b1eafaab60e01b81526000805160206159928339815191529163b1eafaab9161133d918f918791906004016156fe565b602060405180830381865afa15801561135a573d6000803e3d6000fd5b505050506040513d601f19601f8201168201806040525081019061137e919061569f565b105b15611405576040516239c6e160ea1b815273f31d88232f36098096d1eb69f0de48b53a1d18ce9063e71b8400906113bd908d908590600401615722565b602060405180830381865afa1580156113da573d6000803e3d6000fd5b505050506040513d601f19601f820116820180604052508101906113fe91906156e1565b905061127b565b836000036114135760001993505b6001600160a01b0381161580159061142b5750815115155b801561143657508315155b156115a257836114458161573c565b6040516239c6e160ea1b81529095506000915073f31d88232f36098096d1eb69f0de48b53a1d18ce9063e71b840090611484908e908690600401615722565b602060405180830381865afa1580156114a1573d6000803e3d6000fd5b505050506040513d601f19601f820116820180604052508101906114c591906156e1565b60405163df4fb9ef60e01b81529091506000805160206159928339815191529063df4fb9ef906114fb908e908690600401615722565b600060405180830381600087803b15801561151557600080fd5b505af1158015611529573d6000803e3d6000fd5b5050505060006115468c8486600001518760c001518e8e8d612c6e565b90508060400151156115595750506115a2565b8051602085015161156a91906156ce565b602080860191909152810151604085015161158591906156ce565b6040850152805184516115989190615753565b8452509050611413565b81604001516000036115c7576040516323cfe49f60e01b815260040160405180910390fd5b60408083015160c084015160e0850151925163c5d75f7b60e01b81526001600160a01b038e1660048201526024810192909252604482015260648101919091526000805160206159928339815191529063c5d75f7b906084016020604051808303816000875af115801561163f573d6000803e3d6000fd5b505050506040513d601f19601f82011682018060405250810190611663919061569f565b506040828101519051631ee9211f60e01b81526001600160a01b038c166004820152602481019190915260008051602061599283398151915290631ee9211f90604401602060405180830381865afa1580156116c3573d6000803e3d6000fd5b505050506040513d601f19601f820116820180604052508101906116e7919061569f565b6060830181905260408301516116fe919085613077565b60208201516060830151604080850151905163025eeff360e41b81526001600160a01b038e166004820152336024820152604481019390935260648301919091526084820152600080516020615992833981519152906325eeff309060a401600060405180830381600087803b15801561177757600080fd5b505af115801561178b573d6000803e3d6000fd5b50505050896001600160a01b03167f08b6f1ce3f9ab2722e8ea40c31a3e3a806a41702c5994f29af43dc0c1f2837df8a8460200151856040015186606001516040516117f0949392919093845260208401929092526040830152606082015260800190565b60405180910390a250505050505050505050565b6001600160a01b037f000000000000000000000000000000000000000000000000000000000000000016300361184c5760405162461bcd60e51b8152600401610fe7906157a7565b7f00000000000000000000000000000000000000000000000000000000000000006001600160a01b03166118956000805160206159b2833981519152546001600160a01b031690565b6001600160a01b0316146118bb5760405162461bcd60e51b8152600401610fe7906157f3565b6118c482612823565b6118d08282600161282b565b5050565b6000306001600160a01b037f000000000000000000000000000000000000000000000000000000000000000016146119745760405162461bcd60e51b815260206004820152603860248201527f555550535570677261646561626c653a206d757374206e6f742062652063616c60448201527f6c6564207468726f7567682064656c656761746563616c6c00000000000000006064820152608401610fe7565b506000805160206159b283398151915290565b61198f613156565b6119c36040518060a00160405280600081526020016000815260200160001515815260200160008152602001600081525090565b6119cb615256565b604051635670bcc760e11b81526001600160a01b03851660048201527389f1eccf2644902344db02788a790551bb0703519063ace1798e90602401602060405180830381865afa158015611a23573d6000803e3d6000fd5b505050506040513d601f19601f82011682018060405250810190611a47919061569f565b825260408051630d9a6b3560e01b81529051734f39f12064d83f6dd7a2bdb0d53af8be560356a691630d9a6b359160048083019260209291908290030181865afa158015611a99573d6000803e3d6000fd5b505050506040513d601f19601f82011682018060405250810190611abd919061569f565b60208301528151611acf9085906131af565b1580156040840152611af657611aef84836000015184602001518661323d565b9050611b0d565b611b0a848360000151846020015186613700565b90505b8060200151600003611b3257604051636d1dff1f60e11b815260040160405180910390fd5b60c081015160e0820151608083015160a0840151604051637012f7fb60e01b81526001600160a01b0389166004820152602481019490945260448401929092526064830152608482015260008051602061599283398151915290637012f7fb9060a401600060405180830381600087803b158015611baf57600080fd5b505af1158015611bc3573d6000803e3d6000fd5b50505050806101000151600014611c5b576101008101516040516347878f1560e01b8152732b0024ecee0626e9cfb5f0195f69dcac5b759dc9916347878f1591611c289188917309dfdf392a56e4316e97a13e20b09c415fcd3d7b91906004016156fe565b600060405180830381600087803b158015611c4257600080fd5b505af1158015611c56573d6000803e3d6000fd5b505050505b604081810151905163da3835ad60e01b81526001600160a01b038616600482015260248101919091526000805160206159928339815191529063da3835ad90604401600060405180830381600087803b158015611cb757600080fd5b505af1158015611ccb573d6000803e3d6000fd5b505050602082015160608401525061010081015160408201518251611cf09190615753565b611cfa9190615753565b6080808401829052606080850151604080860151868401518251938452602084019690965290820152908101929092526001600160a01b038616917fa3f221854f649364e9a3bb384dd1ff938482664f4a0eac0f6e39a542f5193bd3910160405180910390a26060810151604080830151905163b65c72bf60e01b81526001600160a01b0387166004820152336024820152604481019290925260648201526000805160206159928339815191529063b65c72bf90608401600060405180830381600087803b158015611dcc57600080fd5b505af1158015611de0573d6000803e3d6000fd5b5050505050506118d06001606555565b604051631636001d60e01b81526001600160a01b038516600482015260009081908190819060008051602061599283398151915290631636001d90602401602060405180830381865afa158015611e4b573d6000803e3d6000fd5b505050506040513d601f19601f82011682018060405250810190611e6f919061569f565b905080600003611e895760008086935093509350506120fe565b604051637608271560e01b81526001600160a01b038916600482015273f31d88232f36098096d1eb69f0de48b53a1d18ce90637608271590602401602060405180830381865afa158015611ee1573d6000803e3d6000fd5b505050506040513d601f19601f82011682018060405250810190611f0591906156e1565b6040516390ec230160e01b8152909450611f87908890600080516020615992833981519152906390ec230190611f41908d908a90600401615722565b602060405180830381865afa158015611f5e573d6000803e3d6000fd5b505050506040513d601f19601f82011682018060405250810190611f82919061569f565b613903565b925084915060015b868110156120fb5760408051602081018590520160408051601f19818403018152919052805160209091012092506000611fc98385615861565b604051630bf8f6c560e31b81526001600160a01b038c1660048201526024810182905290915060009060008051602061599283398151915290635fc7b62890604401602060405180830381865afa158015612028573d6000803e3d6000fd5b505050506040513d601f19601f8201168201806040525081019061204c91906156e1565b6040516390ec230160e01b8152909150600090600080516020615992833981519152906390ec230190612085908f908690600401615722565b602060405180830381865afa1580156120a2573d6000803e3d6000fd5b505050506040513d601f19601f820116820180604052508101906120c6919061569f565b905060006120d4828d613903565b9050878110156120e5578097508298505b846120ef81615875565b95505050505050611f8f565b50505b9450945094915050565b612110613926565b61211a6000613980565b565b600054610100900460ff161580801561213c5750600054600160ff909116105b806121565750303b158015612156575060005460ff166001145b6121b95760405162461bcd60e51b815260206004820152602e60248201527f496e697469616c697a61626c653a20636f6e747261637420697320616c72656160448201526d191e481a5b9a5d1a585b1a5e995960921b6064820152608401610fe7565b6000805460ff1916600117905580156121dc576000805461ff0019166101001790555b6121e46139d2565b6121ec613a01565b6121f4613a28565b8015611084576000805461ff0019169055604051600181527f7f26b83ff96e1f2b6a682f133852f6798a09c465da95921460cefb3847402498906020015b60405180910390a150565b604051633670757d60e01b815260008051602061599283398151915290633670757d906122709085908590600401615722565b602060405180830381865afa15801561228d573d6000803e3d6000fd5b505050506040513d601f19601f820116820180604052508101906122b1919061583f565b6122ce5760405163ea67e57360e01b815260040160405180910390fd5b6040805160018082528183019092526000916020808301908036833701905050905081816000815181106123045761230461588e565b60200260200101906001600160a01b031690816001600160a01b03168152505061232e83826123fa565b505050565b604051635373433f60e01b81526001600160a01b03821660048201526000908190732b0024ecee0626e9cfb5f0195f69dcac5b759dc990635373433f90602401602060405180830381865afa158015612390573d6000803e3d6000fd5b505050506040513d601f19601f820116820180604052508101906123b4919061569f565b604051635373433f60e01b81526001600160a01b03851660048201529091506000907384446698694b348eaece187b55df06ab4ce72b3590635373433f90602401610864565b612402613156565b80511580612411575060198151115b1561242f5760405163156c2bf560e01b815260040160405180910390fd5b6124636040518060a00160405280600081526020016000815260200160001515815260200160008152602001600081525090565b61246b615256565b734f39f12064d83f6dd7a2bdb0d53af8be560356a66001600160a01b0316630d9a6b356040518163ffffffff1660e01b8152600401602060405180830381865afa1580156124bd573d6000803e3d6000fd5b505050506040513d601f19601f820116820180604052508101906124e1919061569f565b6020830152604051635670bcc760e11b81526001600160a01b03851660048201527389f1eccf2644902344db02788a790551bb0703519063ace1798e90602401602060405180830381865afa15801561253e573d6000803e3d6000fd5b505050506040513d601f19601f82011682018060405250810190612562919061569f565b8083526125709085906131af565b158015604084015261259057611aef848360000151846020015186613a57565b611b0a848360000151846020015186613dfa565b337357a1953bf194a1ef73396e442ac7dc761dcd23cc146125d85760405163a5b37b1560e01b815260040160405180910390fd5b6125e48110806125e9575061271081115b1561260757604051631260a6a960e31b815260040160405180910390fd5b6101238190556040518181527f39e82d837dcc454e3b68bd2a39ec088a78af1570fa1a2de0b9b2e2d45c1158c690602001612232565b600061264983836127ed565b90505b92915050565b61265a613926565b6001600160a01b0381166126bf5760405162461bcd60e51b815260206004820152602660248201527f4f776e61626c653a206e6577206f776e657220697320746865207a65726f206160448201526564647265737360d01b6064820152608401610fe7565b61108481613980565b61108481612823565b60405163c08261db60e01b81526001600160a01b03831660048201526000906000805160206159f98339815191529063c08261db90602401602060405180830381865afa158015612726573d6000803e3d6000fd5b505050506040513d601f19601f8201168201806040525081019061274a919061569f565b6126499083615753565b60008183106127635781612649565b5090919050565b60405163c08261db60e01b81526001600160a01b03831660048201526000906000805160206159f98339815191529063c08261db90602401602060405180830381865afa1580156127bf573d6000803e3d6000fd5b505050506040513d601f19601f820116820180604052508101906127e3919061569f565b61264990836156ce565b6000811561281a578161280968056bc75e2d6310000085615766565b6128139190615793565b905061264c565b5060001961264c565b611084613926565b7f4910fdfa16fed3260ed0e7147f7cc6da11a60208b5b9406d12a635614ffd91435460ff161561285e5761232e83613f84565b826001600160a01b03166352d1902d6040518163ffffffff1660e01b8152600401602060405180830381865afa9250505080156128b8575060408051601f3d908101601f191682019092526128b59181019061569f565b60015b61291b5760405162461bcd60e51b815260206004820152602e60248201527f45524331393637557067726164653a206e657720696d706c656d656e7461746960448201526d6f6e206973206e6f74205555505360901b6064820152608401610fe7565b6000805160206159b2833981519152811461298a5760405162461bcd60e51b815260206004820152602960248201527f45524331393637557067726164653a20756e737570706f727465642070726f786044820152681a58589b195555525160ba1b6064820152608401610fe7565b5061232e838383614020565b604051633d15092560e21b81526001600160a01b03851660048201526000906000805160206159f98339815191529063f454249490602401602060405180830381865afa1580156129eb573d6000803e3d6000fd5b505050506040513d601f19601f82011682018060405250810190612a0f919061569f565b905042811115612a32576040516346351edb60e11b815260040160405180910390fd5b60405163443c4fcb60e01b81526001600160a01b03861660048201526000906000805160206159f98339815191529063443c4fcb90602401602060405180830381865afa158015612a87573d6000803e3d6000fd5b505050506040513d601f19601f82011682018060405250810190612aab919061569f565b905080851080612ac25750670de0b6b3a764000085115b15612af157604051636c52a2bb60e11b815260048101829052670de0b6b3a76400006024820152604401610fe7565b83600003612b1257604051631bfb249760e01b815260040160405180910390fd5b6040516370a0823160e01b81523360048201526000907315f74458ae0bfdaa1a96ca1aa779d715cc1eefe4906370a0823190602401602060405180830381865afa158015612b64573d6000803e3d6000fd5b505050506040513d601f19601f82011682018060405250810190612b88919061569f565b905084811015612bae5760405163fdba74d160e01b815260048101829052602401610fe7565b6000612bba8886614045565b604051633c557a6f60e11b81526001600160a01b038a1660048201529091506000906000805160206159f9833981519152906378aaf4de90602401602060405180830381865afa158015612c12573d6000803e3d6000fd5b505050506040513d601f19601f82011682018060405250810190612c36919061569f565b905080821015612c6357604051630ef8221160e31b81526004810183905260248101829052604401610fe7565b505050505050505050565b612c94604051806060016040528060008152602001600081526020016000151581525090565b604051637f8da42560e01b815260009060008051602061599283398151915290637f8da42590612cca908c908c90600401615722565b602060405180830381865afa158015612ce7573d6000803e3d6000fd5b505050506040513d601f19601f82011682018060405250810190612d0b919061569f565b6040516341f0f4bd60e01b8152909150600090600080516020615992833981519152906341f0f4bd90612d44908d908d90600401615722565b602060405180830381865afa158015612d61573d6000803e3d6000fd5b505050506040513d601f19601f82011682018060405250810190612d85919061569f565b60405163c08261db60e01b81526001600160a01b038c166004820152909150612dc89089906000805160206159f98339815191529063c08261db90602401610d20565b8084528790612de090670de0b6b3a764000090615766565b612dea9190615793565b602084018190526101235461271091612e039190615766565b612e0d9190615793565b60208401528251600090612e219084615753565b90506000846020015183612e359190615753565b60405163c08261db60e01b81526001600160a01b038e1660048201529091506000805160206159f98339815191529063c08261db90602401602060405180830381865afa158015612e8a573d6000803e3d6000fd5b505050506040513d601f19601f82011682018060405250810190612eae919061569f565b8203612f205760405163456dc0ff60e11b815260008051602061599283398151915290638adb81fe90612ee9908f908f9086906004016156fe565b600060405180830381600087803b158015612f0357600080fd5b505af1158015612f17573d6000803e3d6000fd5b50505050613067565b6000612f2c82846127ed565b90508681141580612fba57506040516321b443a360e21b81526001600160a01b038e1660048201526000805160206159f9833981519152906386d10e8c90602401602060405180830381865afa158015612f8a573d6000803e3d6000fd5b505050506040513d601f19601f82011682018060405250810190612fae919061569f565b612fb88e856126d1565b105b15612fd1575050600160408501525061306c915050565b60405163038027ff60e21b81526001600160a01b038e811660048301528d811660248301526044820185905260648201849052608482018390528a811660a4830152891660c482015260008051602061599283398151915290630e009ffc9060e401600060405180830381600087803b15801561304d57600080fd5b505af1158015613061573d6000803e3d6000fd5b50505050505b505050505b979650505050505050565b6000826000805160206159f98339815191526001600160a01b031663a20baee66040518163ffffffff1660e01b8152600401602060405180830381865afa1580156130c6573d6000803e3d6000fd5b505050506040513d601f19601f820116820180604052508101906130ea919061569f565b6130f49086615766565b6130fe9190615793565b9050818111156131505760405162461bcd60e51b815260206004820152601d60248201527f4665652065786365656465642070726f7669646564206d6178696d756d0000006044820152606401610fe7565b50505050565b6002606554036131a85760405162461bcd60e51b815260206004820152601f60248201527f5265656e7472616e637947756172643a207265656e7472616e742063616c6c006044820152606401610fe7565b6002606555565b6000806131bc8484614045565b60405163316a306d60e11b81526001600160a01b03861660048201529091506000805160206159f9833981519152906362d460da90602401602060405180830381865afa158015613211573d6000803e3d6000fd5b505050506040513d601f19601f82011682018060405250810190613235919061569f565b119392505050565b613245615256565b61324d6152a2565b613255615256565b84825260006060830152613268876107a1565b608083015261327687612333565b60a0830152604051637608271560e01b81526001600160a01b038816600482015273f31d88232f36098096d1eb69f0de48b53a1d18ce90637608271590602401602060405180830381865afa1580156132d3573d6000803e3d6000fd5b505050506040513d601f19601f820116820180604052508101906132f791906156e1565b6001600160a01b0390811660408481019190915251631bdb4c8d60e01b8152908816600482015260009073f31d88232f36098096d1eb69f0de48b53a1d18ce90631bdb4c8d90602401602060405180830381865afa15801561335d573d6000803e3d6000fd5b505050506040513d601f19601f8201168201806040525081019061338191906156e1565b905060005b85811080156133ab5750816001600160a01b031684604001516001600160a01b031614155b156136f45760408085015190516239c6e160ea1b815260009173f31d88232f36098096d1eb69f0de48b53a1d18ce9163e71b8400916133ef918e9190600401615722565b602060405180830381865afa15801561340c573d6000803e3d6000fd5b505050506040513d601f19601f8201168201806040525081019061343091906156e1565b604080870151905163b1eafaab60e01b81529192506000805160206159928339815191529163b1eafaab9161346c918e91908e906004016156fe565b602060405180830381865afa158015613489573d6000803e3d6000fd5b505050506040513d601f19601f820116820180604052508101906134ad919061569f565b6020860152606085015161361157604051633c557a6f60e11b81526001600160a01b038b1660048201526000805160206159f9833981519152906378aaf4de90602401602060405180830381865afa15801561350d573d6000803e3d6000fd5b505050506040513d601f19601f82011682018060405250810190613531919061569f565b85602001511015801561354357508451155b1561354e57506136f4565b60006135638660a0015187608001518c614074565b905061357f8b876040015188602001518960000151858f6140a8565b6080810151875191965061359291615753565b8652608080860151908701516135a89190615753565b6080870152610100850151604086015160a080880151908901516135cc9190615753565b6135d69190615753565b6135e09190615753565b60a08701526135ef87866149b0565b96506136058b8760a0015188608001518d614a9a565b156060870152506136de565b8460600151801561369a5750604051633c557a6f60e11b81526001600160a01b038b1660048201526000805160206159f9833981519152906378aaf4de90602401602060405180830381865afa15801561366f573d6000803e3d6000fd5b505050506040513d601f19601f82011682018060405250810190613693919061569f565b8560200151105b156136d8576136b28a86604001518760000151614b2b565b608081015186519195506136c591615753565b85526136d186856149b0565b95506136de565b506136f4565b6001600160a01b03166040850152600101613386565b50505050949350505050565b613708615256565b6137106152a2565b613718615256565b84825260005b848110156138f157604051637608271560e01b81526001600160a01b038916600482015273f31d88232f36098096d1eb69f0de48b53a1d18ce90637608271590602401602060405180830381865afa15801561377e573d6000803e3d6000fd5b505050506040513d601f19601f820116820180604052508101906137a291906156e1565b6001600160a01b031660408085018290525163b1eafaab60e01b81526000805160206159928339815191529163b1eafaab916137e4918c918c906004016156fe565b602060405180830381865afa158015613801573d6000803e3d6000fd5b505050506040513d601f19601f82011682018060405250810190613825919061569f565b6020840152604051633c557a6f60e11b81526001600160a01b03891660048201526000805160206159f9833981519152906378aaf4de90602401602060405180830381865afa15801561387c573d6000803e3d6000fd5b505050506040513d601f19601f820116820180604052508101906138a0919061569f565b836020015110156138e4576138be8884604001518560000151614b2b565b608081015184519193506138d191615753565b83526138dd84836149b0565b93506138e9565b6138f1565b60010161371e565b505050949350505050565b6001606555565b60008183101561391c576139178383615753565b612649565b6126498284615753565b60c9546001600160a01b0316331461211a5760405162461bcd60e51b815260206004820181905260248201527f4f776e61626c653a2063616c6c6572206973206e6f7420746865206f776e65726044820152606401610fe7565b60c980546001600160a01b038381166001600160a01b0319831681179093556040519116919082907f8be0079c531659141344cd1fd0a4f28419497f9722a3daafe3b4186f6b6457e090600090a35050565b600054610100900460ff166139f95760405162461bcd60e51b8152600401610fe7906158a4565b61211a614e41565b600054610100900460ff1661211a5760405162461bcd60e51b8152600401610fe7906158a4565b600054610100900460ff16613a4f5760405162461bcd60e51b8152600401610fe7906158a4565b61211a614e71565b613a5f615256565b613a676152a2565b613a6f615256565b84825260006060830152613a82876107a1565b6080830152613a9087612333565b60a083015260005b84518110156138f157848181518110613ab357613ab361588e565b60209081029190910101516001600160a01b031660408481018290525163d9721b6360e01b81526001916000805160206159928339815191529163d9721b6391613b02918d9190600401615722565b602060405180830381865afa158015613b1f573d6000803e3d6000fd5b505050506040513d601f19601f82011682018060405250810190613b43919061569f565b14613b5057600101613a98565b604080840151905163b1eafaab60e01b81526000805160206159928339815191529163b1eafaab91613b88918c918c906004016156fe565b602060405180830381865afa158015613ba5573d6000803e3d6000fd5b505050506040513d601f19601f82011682018060405250810190613bc9919061569f565b60208401526060830151613d2f57604051633c557a6f60e11b81526001600160a01b03891660048201526000805160206159f9833981519152906378aaf4de90602401602060405180830381865afa158015613c29573d6000803e3d6000fd5b505050506040513d601f19601f82011682018060405250810190613c4d919061569f565b836020015110158015613c5f57508251155b15613c6c57600101613a98565b6000613c818460a0015185608001518a614074565b9050613c9d89856040015186602001518760000151858d6140a8565b60808101518551919450613cb091615753565b845260808084015190850151613cc69190615753565b6080850152610100830151604084015160a08086015190870151613cea9190615753565b613cf49190615753565b613cfe9190615753565b60a0850152613d0d85846149b0565b9450613d23898560a0015186608001518b614a9a565b15606085015250613df2565b82606001518015613db85750604051633c557a6f60e11b81526001600160a01b03891660048201526000805160206159f9833981519152906378aaf4de90602401602060405180830381865afa158015613d8d573d6000803e3d6000fd5b505050506040513d601f19601f82011682018060405250810190613db1919061569f565b8360200151105b15613df257613dd08884604001518560000151614b2b565b60808101518451919350613de391615753565b8352613def84836149b0565b93505b600101613a98565b613e02615256565b613e0a6152a2565b613e12615256565b84825260005b84518110156138f157848181518110613e3357613e3361588e565b60209081029190910101516001600160a01b031660408085018290525163b1eafaab60e01b81526000805160206159928339815191529163b1eafaab91613e80918c918c906004016156fe565b602060405180830381865afa158015613e9d573d6000803e3d6000fd5b505050506040513d601f19601f82011682018060405250810190613ec1919061569f565b6020840152604051633c557a6f60e11b81526001600160a01b03891660048201526000805160206159f9833981519152906378aaf4de90602401602060405180830381865afa158015613f18573d6000803e3d6000fd5b505050506040513d601f19601f82011682018060405250810190613f3c919061569f565b83602001511015613f7c57613f5a8884604001518560000151614b2b565b60808101518451919350613f6d91615753565b8352613f7984836149b0565b93505b600101613e18565b6001600160a01b0381163b613ff15760405162461bcd60e51b815260206004820152602d60248201527f455243313936373a206e657720696d706c656d656e746174696f6e206973206e60448201526c1bdd08184818dbdb9d1c9858dd609a1b6064820152608401610fe7565b6000805160206159b283398151915280546001600160a01b0319166001600160a01b0392909216919091179055565b61402983614e98565b6000825111806140365750805b1561232e576131508383614ed8565b60008061405184612333565b9050600061405e856107a1565b905061406b828286614074565b95945050505050565b6000821561409c576000836140898487615766565b6140939190615793565b91506140a19050565b506000195b9392505050565b6140b0615256565b6140d460405180606001604052806000815260200160008152602001600081525090565b604051631636001d60e01b81526001600160a01b038916600482015260019060008051602061599283398151915290631636001d90602401602060405180830381865afa158015614129573d6000803e3d6000fd5b505050506040513d601f19601f8201168201806040525081019061414d919061569f565b1161415857506149a6565b6040516309bde83560e21b8152600080516020615992833981519152906326f7a0d49061418b908b908b90600401615722565b608060405180830381865afa1580156141a8573d6000803e3d6000fd5b505050506040513d601f19601f820116820180604052508101906141cc91906158ef565b604085015260208481019190915284018190529083526141ed908990614fc3565b6040838101919091525163c08261db60e01b81526001600160a01b03891660048201526000805160206159f98339815191529063c08261db90602401602060405180830381865afa158015614246573d6000803e3d6000fd5b505050506040513d601f19601f8201168201806040525081019061426a919061569f565b6060830152604082015160208301516142839190615753565b81526040805163397f12d560e11b815290516000805160206159f9833981519152916372fe25aa9160048083019260209291908290030181865afa1580156142cf573d6000803e3d6000fd5b505050506040513d601f19601f820116820180604052508101906142f3919061569f565b86116144ab576020810151604080830151905163679eaf8f60e11b81526000805160206159928339815191529263cf3d5f1e92614336928d929190600401615350565b600060405180830381600087803b15801561435057600080fd5b505af1158015614364573d6000803e3d6000fd5b5050604051633ed3a18f60e21b8152600080516020615992833981519152925063fb4e863c915061439b908b908b90600401615722565b600060405180830381600087803b1580156143b557600080fd5b505af11580156143c9573d6000803e3d6000fd5b505060006080850181905260a08501525050815160c0830152805160e0830152604051637027c5ff60e01b815260008051602061599283398151915290637027c5ff9061441c908b908b90600401615722565b600060405180830381600087803b15801561443657600080fd5b505af115801561444a573d6000803e3d6000fd5b50505050866001600160a01b0316886001600160a01b03167f39bd24c0cc7c11940a19ed0ec77cf1a6d4ea1149f82d15a064003a7cbda7966a84600001518560200151600260405161449e93929190615925565b60405180910390a36149a4565b6000805160206159f98339815191526001600160a01b03166372fe25aa6040518163ffffffff1660e01b8152600401602060405180830381865afa1580156144f7573d6000803e3d6000fd5b505050506040513d601f19601f8201168201806040525081019061451b919061569f565b8611801561459d5750604051633c557a6f60e11b81526001600160a01b03891660048201526000805160206159f9833981519152906378aaf4de90602401602060405180830381865afa158015614576573d6000803e3d6000fd5b505050506040513d601f19601f8201168201806040525081019061459a919061569f565b86105b156146cd576020810151604080830151905163679eaf8f60e11b81526000805160206159928339815191529263cf3d5f1e926145df928d929190600401615350565b600060405180830381600087803b1580156145f957600080fd5b505af115801561460d573d6000803e3d6000fd5b5050604051633ed3a18f60e21b8152600080516020615992833981519152925063fb4e863c9150614644908b908b90600401615722565b600060405180830381600087803b15801561465e57600080fd5b505af1158015614672573d6000803e3d6000fd5b505083518351614686935090915087615046565b60e086015260c085015260a08401526080830152604051637027c5ff60e01b815260008051602061599283398151915290637027c5ff9061441c908b908b90600401615722565b604051633c557a6f60e11b81526001600160a01b03891660048201526000805160206159f9833981519152906378aaf4de90602401602060405180830381865afa15801561471f573d6000803e3d6000fd5b505050506040513d601f19601f82011682018060405250810190614743919061569f565b861015801561475157508386105b801561475e575081518510155b15614993576020810151604080830151905163679eaf8f60e11b81526000805160206159928339815191529263cf3d5f1e926147a0928d929190600401615350565b600060405180830381600087803b1580156147ba57600080fd5b505af11580156147ce573d6000803e3d6000fd5b50505050846000036147e2576147e261595f565b604051633ed3a18f60e21b81526000805160206159928339815191529063fb4e863c90614815908b908b90600401615722565b600060405180830381600087803b15801561482f57600080fd5b505af1158015614843573d6000803e3d6000fd5b5050505061485b8883600001518460200151866150a7565b604051637027c5ff60e01b815290925060008051602061599283398151915290637027c5ff90614891908b908b90600401615722565b600060405180830381600087803b1580156148ab57600080fd5b505af11580156148bf573d6000803e3d6000fd5b5050505081610100015160001461494357610100820151604051633fa5152d60e21b81527309dfdf392a56e4316e97a13e20b09c415fcd3d7b9163fe9454b491614910918c918c91906004016156fe565b600060405180830381600087803b15801561492a57600080fd5b505af115801561493e573d6000803e3d6000fd5b505050505b866001600160a01b0316886001600160a01b03167f39bd24c0cc7c11940a19ed0ec77cf1a6d4ea1149f82d15a064003a7cbda7966a84600001518560a00151600260405161449e93929190615925565b61499b615256565b91506149a69050565b505b9695505050505050565b6149b8615256565b816040015183604001516149cc91906156ce565b6040820152606080830151908401516149e591906156ce565b6060820152815160208401516149fb91906156ce565b6020808301919091528201518351614a1391906156ce565b815260808083015190840151614a2991906156ce565b608082015260a08083015190840151614a4291906156ce565b60a082015260c08083015190840151614a5b91906156ce565b60c082015260e08083015190840151614a7491906156ce565b60e08201526101008083015190840151614a8e91906156ce565b61010082015292915050565b600080614aa8858585614074565b60405163316a306d60e11b81526001600160a01b03881660048201529091506000805160206159f9833981519152906362d460da90602401602060405180830381865afa158015614afd573d6000803e3d6000fd5b505050506040513d601f19601f82011682018060405250810190614b21919061569f565b1195945050505050565b614b33615256565b614b5760405180606001604052806000815260200160008152602001600081525090565b6040516309bde83560e21b8152600080516020615992833981519152906326f7a0d490614b8a9088908890600401615722565b608060405180830381865afa158015614ba7573d6000803e3d6000fd5b505050506040513d601f19601f82011682018060405250810190614bcb91906158ef565b60408086019182526020868101938452870193909352928552519151905163679eaf8f60e11b81526000805160206159928339815191529263cf3d5f1e92614c19928a929190600401615350565b600060405180830381600087803b158015614c3357600080fd5b505af1158015614c47573d6000803e3d6000fd5b5050604051633ed3a18f60e21b8152600080516020615992833981519152925063fb4e863c9150614c7e9088908890600401615722565b600060405180830381600087803b158015614c9857600080fd5b505af1158015614cac573d6000803e3d6000fd5b50505050614cbe858360200151614fc3565b6040838101919091525163c08261db60e01b81526001600160a01b03861660048201526000805160206159f98339815191529063c08261db90602401602060405180830381865afa158015614d17573d6000803e3d6000fd5b505050506040513d601f19601f82011682018060405250810190614d3b919061569f565b606083015260408201516020830151600091614d5691615753565b9050614d6783600001518286615046565b60e087015260c086015260a08501526080840152604051637027c5ff60e01b815260008051602061599283398151915290637027c5ff90614dae9089908990600401615722565b600060405180830381600087803b158015614dc857600080fd5b505af1158015614ddc573d6000803e3d6000fd5b50505050846001600160a01b0316866001600160a01b03167f39bd24c0cc7c11940a19ed0ec77cf1a6d4ea1149f82d15a064003a7cbda7966a856000015186602001516001604051614e3093929190615925565b60405180910390a350509392505050565b600054610100900460ff16614e685760405162461bcd60e51b8152600401610fe7906158a4565b61211a33613980565b600054610100900460ff166138fc5760405162461bcd60e51b8152600401610fe7906158a4565b614ea181613f84565b6040516001600160a01b038216907fbc7cd75a20ee27fd9adebab32041f755214dbc6bffa90cc0225b39da2e5c2d3b90600090a250565b60606001600160a01b0383163b614f405760405162461bcd60e51b815260206004820152602660248201527f416464726573733a2064656c65676174652063616c6c20746f206e6f6e2d636f6044820152651b9d1c9858dd60d21b6064820152608401610fe7565b600080846001600160a01b031684604051614f5b9190615975565b600060405180830381855af49150503d8060008114614f96576040519150601f19603f3d011682016040523d82523d6000602084013e614f9b565b606091505b509150915061406b82826040518060600160405280602781526020016159d260279139615218565b6040516315ee08fb60e31b81526001600160a01b03831660048201526000906000805160206159f98339815191529063af7047d890602401602060405180830381865afa158015615018573d6000803e3d6000fd5b505050506040513d601f19601f8201168201806040525081019061503c919061569f565b6126499083615793565b600080808084156150915761505b8786612754565b9350866150688588615766565b6150729190615793565b925061507e8488615753565b915061508a8387615753565b905061509e565b5060009250829150859050845b93509350935093565b6150af615256565b83815260208101839052604051633c557a6f60e11b81526001600160a01b038616600482015260009083906000805160206159f9833981519152906378aaf4de90602401602060405180830381865afa158015615110573d6000803e3d6000fd5b505050506040513d601f19601f82011682018060405250810190615134919061569f565b61513e9087615766565b6151489190615793565b90506151548682614fc3565b6040838101919091525163c08261db60e01b81526001600160a01b03871660048201526000805160206159f98339815191529063c08261db90602401602060405180830381865afa1580156151ad573d6000803e3d6000fd5b505050506040513d601f19601f820116820180604052508101906151d1919061569f565b60608301526080820185905260408201516151ec9082615753565b60a08301526151fb8185615753565b61010083015250600060c0820181905260e0820152949350505050565b606083156152275750816140a1565b6140a1838381511561523c5781518083602001fd5b8060405162461bcd60e51b8152600401610fe7919061556a565b6040518061012001604052806000815260200160008152602001600081526020016000815260200160008152602001600081526020016000815260200160008152602001600081525090565b6040518060c00160405280600081526020016000815260200160006001600160a01b0316815260200160001515815260200160008152602001600081525090565b6001600160a01b038116811461108457600080fd5b60006020828403121561530a57600080fd5b81356140a1816152e3565b6000806000806080858703121561532b57600080fd5b8435615336816152e3565b966020860135965060408601359560600135945092505050565b6001600160a01b039390931683526020830191909152604082015260600190565b600080600080600080600080610100898b03121561538e57600080fd5b8835615399816152e3565b97506020890135965060408901356153b0816152e3565b955060608901356153c0816152e3565b945060808901356153d0816152e3565b979a969950949793969560a0850135955060c08501359460e001359350915050565b634e487b7160e01b600052604160045260246000fd5b604051601f8201601f1916810167ffffffffffffffff81118282101715615431576154316153f2565b604052919050565b6000806040838503121561544c57600080fd5b8235615457816152e3565b915060208381013567ffffffffffffffff8082111561547557600080fd5b818601915086601f83011261548957600080fd5b81358181111561549b5761549b6153f2565b6154ad601f8201601f19168501615408565b915080825287848285010111156154c357600080fd5b80848401858401376000848284010152508093505050509250929050565b600080604083850312156154f457600080fd5b82356154ff816152e3565b946020939093013593505050565b6000806040838503121561552057600080fd5b823561552b816152e3565b9150602083013561553b816152e3565b809150509250929050565b60005b83811015615561578181015183820152602001615549565b50506000910152565b6020815260008251806020840152615589816040850160208701615546565b601f01601f19169190910160400192915050565b600080604083850312156155b057600080fd5b82356155bb816152e3565b915060208381013567ffffffffffffffff808211156155d957600080fd5b818601915086601f8301126155ed57600080fd5b8135818111156155ff576155ff6153f2565b8060051b9150615610848301615408565b818152918301840191848101908984111561562a57600080fd5b938501935b838510156156545784359250615644836152e3565b828252938501939085019061562f565b8096505050505050509250929050565b60006020828403121561567657600080fd5b5035919050565b6000806040838503121561569057600080fd5b50508035926020909101359150565b6000602082840312156156b157600080fd5b5051919050565b634e487b7160e01b600052601160045260246000fd5b8082018082111561264c5761264c6156b8565b6000602082840312156156f357600080fd5b81516140a1816152e3565b6001600160a01b039384168152919092166020820152604081019190915260600190565b6001600160a01b0392831681529116602082015260400190565b60008161574b5761574b6156b8565b506000190190565b8181038181111561264c5761264c6156b8565b808202811582820484141761264c5761264c6156b8565b634e487b7160e01b600052601260045260246000fd5b6000826157a2576157a261577d565b500490565b6020808252602c908201527f46756e6374696f6e206d7573742062652063616c6c6564207468726f7567682060408201526b19195b1959d85d1958d85b1b60a21b606082015260800190565b6020808252602c908201527f46756e6374696f6e206d7573742062652063616c6c6564207468726f7567682060408201526b6163746976652070726f787960a01b606082015260800190565b60006020828403121561585157600080fd5b815180151581146140a157600080fd5b6000826158705761587061577d565b500690565b600060018201615887576158876156b8565b5060010190565b634e487b7160e01b600052603260045260246000fd5b6020808252602b908201527f496e697469616c697a61626c653a20636f6e7472616374206973206e6f74206960408201526a6e697469616c697a696e6760a81b606082015260800190565b6000806000806080858703121561590557600080fd5b505082516020840151604085015160609095015191969095509092509050565b83815260208101839052606081016004831061595157634e487b7160e01b600052602160045260246000fd5b826040830152949350505050565b634e487b7160e01b600052600160045260246000fd5b60008251615987818460208701615546565b919091019291505056fe000000000000000000000000db5dacb1dfbe16326c3656a88017f0cb4ece0977360894a13ba1a3210667c828492db98dca3e2076cc3735a920a3ca505d382bbc416464726573733a206c6f772d6c6576656c2064656c65676174652063616c6c206661696c6564000000000000000000000000f7cc67326f9a1d057c1e4b110ef6c680b13a1f53a264697066735822122006d9caacad90af0ae4fda51fc467fd99fcf3e462e73861507eea2de6afc5923164736f6c63430008130033",
  "linkReferences": {},
  "deployedLinkReferences": {}
}